{
  "contractName": "Counter",
  "abi": [
    {
      "constant": true,
      "inputs": [],
      "name": "value",
      "outputs": [
        {
          "name": "",
          "type": "uint256"
        }
      ],
      "payable": false,
      "stateMutability": "view",
      "type": "function"
    },
    {
      "constant": false,
      "inputs": [
        {
          "name": "amount",
          "type": "uint256"
        }
      ],
      "name": "increase",
      "outputs": [],
      "payable": false,
      "stateMutability": "nonpayable",
      "type": "function"
    }
  ],
  "bytecode": "0x608060405234801561001057600080fd5b5060c48061001f6000396000f3fe6080604052348015600f57600080fd5b5060043610604e577c0100000000000000000000000000000000000000000000000000000000600035046330f3f0db811460535780633fa4f24514606f575b600080fd5b606d60048036036020811015606757600080fd5b50356087565b005b60756092565b60408051918252519081900360200190f35b600080549091019055565b6000548156fea165627a7a72305820580360afbfd9f2017979b77a6bf530daf0cbb5cd52dd8b48984e058460b491760029",
  "source": "pragma solidity ^0.5.0;\r\n\r\ncontract Counter {\r\n  uint256 public value;\r\n\r\n  function increase(uint256 amount) public {\r\n    value += amount;\r\n  }\r\n}",
  "sourcePath": "C:/Users/Bruno/repos/openzeppelin-sdk-guide/contracts/Counter.sol",
  "compiler": {
    "name": "solc",
    "version": "0.5.2+commit.1df8f40c.Emscripten.clang"
  },
  "schemaVersion": "3.0.11",
  "updatedAt": "2019-08-15T09:35:38.318Z",
  "devdoc": {
    "methods": {}
  },
  "userdoc": {
    "methods": {}
  }
}